:020000040800F2
:1000000018040020050100083108000881070008D5
:10001000B10700089D0100089B08000800000000CF
:10002000000000000000000000000000350800088B
:100030009F0100080000000033080008370800088E
:100040001F0100081F0100081F0100081F01000810
:100050001F0100081F0100081F0100081F01000800
:100060001F0100081F0100081F0100081F010008F0
:100070001F0100081F0100081F0100081F010008E0
:100080001F0100081F0100081F0100081F010008D0
:100090001F0100081F0100081F0100081F010008C0
:1000A0001F0100081F0100081F0100081F010008B0
:1000B0001F0100081F0100081F0100081F010008A0
:1000C0001F0100081F0100081F0100081F01000890
:1000D0001F0100081F0100081F0100081F01000880
:1000E0001F0100081F0100081F010008DFF810D0E1
:1000F00000F042F800480047650A0008AFF30080AE
:10010000180400200648804706480047FEE7FEE73F
:10011000FEE7FEE7FEE7FEE7FEE7FEE7FEE7FEE7B7
:1001200099080008ED000008D2B201E000F8012BA8
:10013000491EFBD270470022F6E710B513460A4667
:1001400004461946FFF7F0FF204610BD30B50B46B8
:10015000014600202022012409E021FA02F59D42F7
:1001600005D303FA02F5491B04FA02F52844151ECB
:10017000A2F10102F1DC30BD064C074D06E0E0685B
:1001800040F0010394E8070098471034AC42F6D3DE
:10019000FFF7B0FFA80A0008C80A0008FEE770478A
:1001A0000148806870470000000000200248816814
:1001B000027811448160704700000020074810B5A4
:1001C000016841F010010160032000F067F80F2082
:1001D00000F006F800F024F8002010BD00200240D6
:1001E00070B50D4D04464FF47A712878B1FBF0F0EC
:1001F0000A490968B1FBF0F000F0AEFA48B9102CDA
:1002000007D200222146501E00F028F800206C6022
:1002100070BD012070BD0000000000200C00002017
:100220000C4808B5816941F001018161816901F0E3
:1002300001010091C16941F08051C161C06900F0C4
:10024000805000900448416821F0E06141F0007165
:10025000416008BD0010024000000140F0B40E4BA8
:100260001B680C46C3F30223C3F10705042D00D914
:100270000425191D072901D2002300E0DB1E0126F9
:1002800006FA05F1491E214099409E40761E16400F
:100290003143F0BC00F012BB0CED00E0064900F069
:1002A000070208684FF6FF03184040EA0220034A9D
:1002B00010430860704700000CED00E00000FA05F4
:1002C0002DE9F0470F46050061D0434E306800F03D
:1002D0000700B84209D2306820F007003843306088
:1002E000306800F00700B84251D128683B4C8107C4
:1002F00012D5400703D5606840F4E060606028785C
:10030000000703D5606840F4605060606068A968C9
:1003100020F0F000084360602878C00728D06868A3
:10032000012810D02168022810D0890700292EDA70
:10033000616821F0030101436160FFF731FF8046EE
:1003400041F288390DE021688903EFE78901EDE783
:10035000FFF726FFA0EB0801494502D90320BDE8BD
:10036000F0876068696800F00C00B0EB810FEFD196
:10037000306800F00700B8420BD9306820F0070061
:1003800038433060306800F00700B84201D00120E7
:10039000E5E72878400705D56068E96820F4E06063
:1003A000084360602878000706D56068296920F452
:1003B000605040EAC100606000F018F86168084AC7
:1003C000C1F30311515CC840064908600648006843
:1003D000FFF706FF0020C2E70020024000100240A5
:1003E000960A00080C000020040000200E4A516804
:1003F0000E4801F00C03042B11D0082B0FD10C4830
:10040000C1F38343C903C05C0AD55168084AC1F3EC
:100410004041921E515C054A5043B0FBF1F07047D9
:1004200004494843704700000010024000127A005F
:10043000860A000800093D002DE9F84F040070D03D
:100440002078C04DC00749D06868C0F381000128FA
:1004500007D06868C0F38100022809D16868C0032A
:1004600006D52868800339D560680028E7D035E0D4
:100470006068B0F5803F0BD010B1B0F5A02F11D05F
:10048000286820F480302860286820F4802002E06A
:10049000286840F480302860606890B1FFF780FEE3
:1004A00006460AE0286840F480202860F0E700BF94
:1004B000FFF776FE801B642873D828688003F7D581
:1004C0000CE0FFF76DFE064605E000BFFFF768FE93
:1004D000801B6428F0D828688003F7D420789A4ECF
:1004E00080074FF001094FF0000839D5686810F017
:1004F0000C0F07D06868C0F38100022809D1686832
:10050000C00306D42868800714D52069012808D1C3
:1005100010E02069B0B1C6F80090FFF741FE074631
:1005200005E00AE1FFF73CFEC01B0228C4D828689A
:100530008007F7D52868616920F0F80040EAC1001B
:1005400028600DE0C6F80080FFF72AFE074604E0A9
:10055000FFF726FEC01B022823D828688007F7D49F
:10056000207800072CD57948A169D9B1C0F800904E
:10057000FFF716FE074604E0FFF712FEC01B022835
:100580000FD8686A8007F7D571484FF4FA510068B0
:10059000B0FBF1F0009000BF0098411E0091FAD22C
:1005A0000EE080E0C0F80080FFF7FAFD074604E0A7
:1005B000FFF7F6FDC01B022875D8686A8007F7D4DC
:1005C0002078400760D5E8690027C00008D4E869B2
:1005D00040F08050E861E869012700F08050009009
:1005E0005C480168C90513D40168834641F48071F1
:1005F0000160FFF7D5FD824606E000BFFFF7D0FDA2
:10060000A0EB0A0064284ED8DBF80000C005F5D541
:10061000E06801280AD008B1052813D0286A20F024
:1006200001002862286A20F0040002E0286A40F0F5
:1006300001002862E06841F2883B98B1FFF7B0FD05
:1006400082460BE0286A40F004002862EEE700BF13
:10065000FFF7A6FDA0EB0A0159455AD8286A800782
:10066000F6D50CE0FFF79CFD824605E0FFF798FD0C
:10067000A0EB0A0159454CD8286A8007F6D41FB16F
:10068000E86920F08050E861E06988B36968C1F3E7
:100690008101022944D00228C6F8608004D0FFF707
:1006A0007FFD044638E034E0FFF77AFD074604E0BA
:1006B000FFF776FDC01B02282BD828688001F7D4ED
:1006C000206AB0F5803F05D16868A16820F4003049
:1006D00008436860D4E908010843696821F474118B
:1006E00008436860C6F86090FFF75AFD044606E0CC
:1006F00025E000BFFFF754FD001B022809D8286839
:100700008001F7D51BE000BFFFF74AFD001B022860
:1007100002D90320BDE8F88F28688001F4D40EE0E8
:100720000128F7D06868226A00F48031914204D130
:10073000616A00F47010884201D00120EAE70020CD
:10074000E8E70000001002400000424280044242FC
:100750000C0000200070004010B5401EB0F1807FFA
:1007600001D3012010BD4FF0E02460610F2160171C
:1007700000F0A4F80020A06107202061002010BD37
:10078000FEE70000094808B5816941F02001816158
:10079000816901F020010091816941F004018161CA
:1007A000806900F00400009008BD000000100240C5
:1007B000FEE700001B48816941F004018161816905
:1007C00041F001018161816941F4804181611648F4
:1007D000016821F0F0010160016841F0B0010160A1
:1007E000016821F470610160016841F48061016079
:1007F0000E4941F64C5008600C480021001D016074
:10080000021D1160121D1160016841F008010160B4
:10081000016841F004010160016841F40051016088
:1008200070470000001002400408014008380140F1
:10083000FEE770477047FFF7B9BC30B58FB028218D
:100840006846FFF778FC14210AA8FFF774FC012121
:100850000804CDE900100024029402250491CDE99A
:1008600007504FF4E01009906846FFF7E5FD08B126
:1008700072B6FEE70F20CDE90A054FF48060CDE99E
:100880000C4002210AA80E94FFF71AFD002801D09F
:1008900072B6FEE70FB030BD7047FEE70FB4054BF0
:1008A00010B503A9044A029800F028F810BC5DF8BE
:1008B00014FB0000510A0008100000200907090E6F
:1008C000002804DB00F1E02080F80014704700F0FD
:1008D0000F0000F1E02080F8141D704702E008C806
:1008E000121F08C1002AFAD170477047002001E0AA
:1008F00001C1121F002AFBD1704700002DE9FF4FF4
:1009000089B09B460446002506E025280BD05A46B0
:100910000B999047641C6D1C20780028F5D10DB010
:100920002846BDE8F08F0027B8460122474900E07D
:10093000074314F8013F203B02FA03F00842F7D1C5
:1009400020782E2819D114F8010F47F004072A281F
:100950000ED06FF02F022078A0F1300109290CD8B9
:1009600008EB880102EB410100EB0108641CF2E78F
:100970000A98641C50F8048B0A9020780028CED086
:10098000642808D0692806D075281ED05A460B99CD
:1009900090476D1C58E00A994FF00A0901C90A9165
:1009A000002802DA40422D2102E0390504D52B212E
:1009B0008DF82010012103E0F90704D02021F7E78A
:1009C0008A4608AE0DE00021FAE70A994FF00A09BD
:1009D00001C90A91F7E74946FFF7B8FB303106F83D
:1009E000011D0028F7D1ADEB060000F120097807C2
:1009F00001D44FF00108C84502DDA8EB090000E072
:100A000000208046002706E008A85A46C05D0B99E2
:100A100090476D1C7F1C5745F6DB04E030205A469A
:100A20000B9990476D1CB8F10001A8F10108F5DCA5
:100A300005E016F8010B5A460B9990476D1CB9F169
:100A40000001A9F10109F4DC641C65E70928010033
:100A500003490A681206FCD50149091D0860704760
:100A600000380140FFF7AAFBFFF7E7FEFFF78AFE19
:100A7000FFF7A0FE8024214601A0FFF70FFFFAE751
:100A800025640000010202030405060708090A0B99
:100A90000C0D0E0F101000000000000000000102FD
:100AA0000304060708090000C80A00080000002027
:100AB00014000000DC080008DC0A00081400002014
:100AC00004040000EC080008010000001000000011
:0C0AD0000000000000127A00000000008E
:04000005080000ED02
:00000001FF
